:10000000080A0020AD200000192100002121000075
:100010002921000029210000292100000000000002
:100020000000000000000000000000002921000086
:1000300029210000000000002921000029210000E2
:100040002921000029210000292100002921000088
:100050002921000029210000292100002921000078
:100060002921000029210000292100002921000068
:100070002921000029210000292100002921000058
:100080002921000029210000292100002921000048
:100090002921000029210000292100002921000038
:1000A0002921000029210000292100002921000028
:1000B0002921000029210000292100002921000018
:1000C0002921000029210000292100002921000008
:1000D00029210000292100002921000029210000F8
:1000E000292100000000000000000000292100007C
:1000F00029210000292100002921000029210000D8
:1001000029210000292100002921000029210000C7
:10011000000000000000000029210000292100004B
:1001200029210000292100002921000029210000A7
:100130002921000029210000292100002921000097
:1001400000000000000000000000000000000000AF
:100150002921000029210000292100002921000077
:10016000000000000000000000000000000000008F
:10017000000000000000000000000000000000007F
:10018000000000000000000000000000000000006F
:10019000000000000000000000000000000000005F
:1001A000000000000000000000000000000000004F
:1001B0002921000029210000292100002921000017
:1001C0002921000029210000292100002921000007
:1001D00029210000292100002921000029210000F7
:1001E0002921000029210000292100000000000031
:1001F0000000000029210000292100002921000021
:10020000292100002921000000000000000000005A
:1002100029210000292100002921000029210000B6
:1002200029210000292100002921000029210000A6
:100230002921000029210000292100002921000096
:100240002921000029210000292100002921000086
:100250002921000029210000292100002921000076
:1002600029210000292100002921000080B483B049
:1002700000AF4C4A4B4B1B6843F010031360494BD3
:100280001B687B60484A484B1B681360474A474BD2
:100290001B681360464A464B1B6843F0FF0313601C
:1002A000444A444B1B6843F0FF0313603D4A3D4BF7
:1002B0001B6843F0040313603A4B1B687B603E4AA3
:1002C0003D4B1B6813603D4A3C4B1B6813603C4A26
:1002D0003B4B1B6843F0F00313603A4A394B1B68F1
:1002E00043F0F00313602F4A2E4B1B6843F00103C9
:1002F00013602C4B1B687B60334A334B1B6823F025
:10030000E0031360314A314B1B68C3F313031360DE
:100310002F4A2F4B1B6843F0EC0313602D4A2D4BE3
:100320001B6823F0EC0313602B4A2B4B1B6843F034
:10033000EC031360294A294B1B6843F0E003136068
:10034000184A184B1B6843F002031360154B1B68D7
:100350007B60234A224B1B6823F0FF031360214B71
:100360001B68204B00221A601F4A1F4B1B6843F07A
:10037000FF0313601D4A1D4B1B6823F0FF0313602E
:100380001B4A1B4B1B6843F0FF031360194A194BB0
:100390001B6843F0FF03136000BF0C37BD465DF8D8
:1003A000047B704708E10F400044024020440240B3
:1003B000104502401C45024000640040206400409B
:1003C000106500401C650040284500402C45004059
:1003D00000440040204400401C45004008450040C7
:1003E000285500402C550040005400402054004047
:1003F0001C5500400855004080B483B000AF034650
:10040000FB711E4A1D4B1B6823F0E00313601C4A5E
:10041000FB791360194A194B1B6843F08003136082
:10042000164A164B1B6823F060031360154B00221D
:100430001A6004E0134B1B680133124A1360114B1E
:100440001B68002BF6D00D4A0C4B1B6823F0E00311
:1004500013600C4B00221A6004E00A4B1B68013346
:10046000084A1360074B1B68B3F57A7FF5D300BFCA
:100470000C37BD465DF8047B704700BFFC4300406D
:10048000FC530040600A002080B483B000AF0346F4
:10049000FB711B4AFB7913601A4A1A4B1B6843F025
:1004A000C0031360174A174B1B6823F02003136027
:1004B000154B00221A6004E0134B1B680133124AEB
:1004C0001360114B1B68162BF6D90E4A0D4B1B6897
:1004D00023F0E00313600C4B00221A6004E00A4B87
:1004E0001B680133084A1360074B1B68B3F57A7F1A
:1004F000F5D300BF0C37BD465DF8047B704700BFE5
:10050000FC530040FC430040600A002080B500AF6F
:10051000254B00221A6004E0234B1B680133224A5A
:100520001360214B1B6843F697229342F4D938207D
:10053000FFF762FF1C4B00221A6004E01A4B1B6895
:100540000133194A1360184B1B6841F287329342FA
:10055000F4D93820FFF750FF134B00221A6004E053
:10056000114B1B680133104A13600F4B1B68952B0E
:10057000F6D90C20FFF740FF0120FFF73DFF0620D2
:10058000FFF73AFF084B00221A6004E0064B1B6895
:100590000133054A1360044B1B684CF24F329342FF
:1005A000F4D900BF80BD00BF600A002080B586B0CE
:1005B00000AFF860B9607A60FB68012B02D180233C
:1005C0007B6101E0C0237B617B69DAB2BB68DBB28F
:1005D0001344DBB21846FFF70FFF06E07B685A1C96
:1005E0007A601B781846FFF74FFF7B681B78002B5B
:1005F000F4D100BF1837BD4680BD00BFB0B586B08E
:1006000000AF00237B618D498D4802F07DFA38618F
:1006100024E07B69002B06D1386902F0CBF9024651
:10062000884B1A6012E07B69012B06D1386902F011
:10063000C1F90246844B1A6008E07B69022B05D1A0
:10064000386902F0B7F90246804B1A607B690133C2
:100650007B617A49002002F057FA38613B69002B30
:10066000D7D100237B610023FB600023BB60002304
:100670007B6001233B60A3E03B68C82202FB03F3DD
:100680006F4A13446D49184602F03EFA386190E013
:100690007B69002B08D1386902F08CF901466C4A5D
:1006A000FB6842F823107CE07B69012B0BD1FA68D0
:1006B00013469B0013445B00664A1344396918468D
:1006C00002F0C4F96DE07B69022B08D1386902F0B1
:1006D00071F90146604AFB6842F8231061E07B69CA
:1006E000032B5ED15D49386902F00EFA38614DE0A6
:1006F000BB68002B35D17B68002B06D1584A4FF0E0
:100700000003584CC2E9003427E07B68012B06D176
:10071000534A4FF00003544CC2E902341DE07B6899
:10072000022B06D14E4A4FF00003504CC2E904346C
:1007300013E07B68032B06D1494A4FF000034C4C71
:10074000C2E9063409E07B68042B06D1444A4FF025
:1007500000034FF08044C2E908347B6801337B60BA
:100760000CE0BB68012B09D1FA6813469B001344C7
:10077000404A13443969184602F068F9BB680133EE
:10078000BB603649002002F0BFF938613B69002B9D
:10079000AED1FB680133FB604FF0FF337B61002378
:1007A000BB602649002002F0AFF938617B69013354
:1007B0007B613B69002B7FF46BAF3B6801333B608F
:1007C0003B68052B7FF758AF1E4B1B68184601F09E
:1007D00001FE4FF00002284B01F062FE03460C467A
:1007E00025461C46184B1B68184601F0F3FD4FF0D8
:1007F00000021C4B01F054FE02460B4620462946DF
:1008000001F09CFC03460C4625461C460F4B1B681A
:10081000184601F0DFFD02460B462046294601F04E
:100820008DFC03460C461846214602F073F802463A
:10083000124B1A6000BF1837BD46B0BD482D0000EE
:1008400000000020480A0020C00A00202C0A0020D6
:100850004C0A0020640A0020300A00204C2D0000C1
:10086000980A00200000E03F0000F03F0000F83F41
:100870000000FC3F080A00200000D03F440A00208E
:1008800080B584B000AF786039600120FFF7B4FD17
:100890007F4B1B68632B03DD7E4B1B68632B3DDCAA
:1008A00030233B7230237B722E23BB727B6808336C
:1008B0001B68DBB23033DBB25BB2FB727B680C339C
:1008C0001B68DBB23033DBB25BB23B733B68002B9F
:1008D00010D107F108031A4600210120FFF766FE38
:1008E0006D4A06210120FFF761FE6C4A00210220BB
:1008F000FFF75CFE3B68012B10D1694A0021012003
:10090000FFF754FE07F108031A4607210120FFF7FD
:100910004DFE644A0D210120FFF748FE5C4B1B6829
:10092000632B04DD5A4B1B68B3F57A7F08DB594B08
:100930001B68632B48DD574B1B68B3F57A7F43DA9E
:1009400030233B727B6804331B68DBB23033DBB28D
:100950005BB27B722E23BB727B6808331B68DBB2F1
:100960003033DBB25BB2FB727B680C331B68DBB2EB
:100970003033DBB25BB23B733B68002B10D107F125
:1009800008031A4600210120FFF710FE424A062103
:100990000120FFF70BFE414A00210220FFF706FE6F
:1009A0003B68012B10D13E4A00210120FFF7FEFDDC
:1009B00007F108031A4607210120FFF7F7FD394A1E
:1009C0000D210120FFF7F2FD314B1B68B3F57A7F53
:1009D00005DB2F4B1B6842F20F7293420ADD2D4B51
:1009E0001B68B3F57A7F4EDB2A4B1B6842F20F720D
:1009F000934248DC7B681B68DBB23033DBB25BB20E
:100A00003B727B6804331B68DBB23033DBB25BB212
:100A10007B722E23BB727B6808331B68DBB23033DA
:100A2000DBB25BB2FB727B680C331B68DBB230332A
:100A3000DBB25BB23B733B68002B10D107F10803BC
:100A40001A4600210120FFF7B1FD134A06210120BB
:100A5000FFF7ACFD114A00210220FFF7A7FD3B681C
:100A6000012B10D10E4A00210120FFF79FFD07F155
:100A700008031A4607210120FFF798FD094A0D21B6
:100A80000120FFF793FD00BF1037BD4680BD00BFBA
:100A9000240A0020280A0020502D00005C2D0000B0
:100AA0006C2D0000742D000080B586B000AF0346A9
:100AB000B9607A60FB73BB68012B22D197F90F20D4
:100AC0007B689A421DDD0120FFF796FC97F90F30F5
:100AD00007F114010A22184601F08CFF07F11403F4
:100AE0001A4600210120FFF761FD544A032101202D
:100AF000FFF75CFD524A00210220FFF757FD01235A
:100B000098E0BB68022B22D197F90F207B689A42AC
:100B10001DDD0120FFF770FC97F90F3007F114017C
:100B20000A22184601F066FF07F114031A46002155
:100B30000120FFF73BFD434A03210120FFF736FD6B
:100B40003F4A00210220FFF731FD012372E0BB681C
:100B5000032B22D197F90F207B689A421DDD0120DB
:100B6000FFF74AFC97F90F3007F114010A221846E3
:100B700001F040FF07F114031A4600210120FFF79E
:100B800015FD314A03210120FFF710FD2C4A0021F9
:100B90000220FFF70BFD01234CE0BB68042B22D1A0
:100BA00097F90F207B689A421DDD0120FFF724FC96
:100BB00097F90F3007F114010A22184601F01AFFC5
:100BC00007F114031A4600210120FFF7EFFC1F4A2A
:100BD00003210120FFF7EAFC194A00210220FFF758
:100BE000E5FC012326E0BB68052B22D197F90F20F5
:100BF0007B689A421DDD0120FFF7FEFB97F90F305D
:100C000007F114010A22184601F0F4FE07F114035B
:100C10001A4600210120FFF7C9FC0D4A03210120DB
:100C2000FFF7C4FC064A00210220FFF7BFFC0123A6
:100C300000E0002318461837BD4680BD782D00001F
:100C4000882D00009C2D0000AC2D0000BC2D000064
:100C5000D02D000080B586B000AF954B1A68954B3B
:100C60001B689A42C0F26382914B1A68914B1B68D1
:100C7000D31A7B61904B1A68904B1B6813448F4AC0
:100C800013608F4B1A688F4B1B6813448D4A136097
:100C90008D4B1A688D4B1B6813448C4A13608C4B28
:100CA00000221A6004E08A4B1B680133884A1360F3
:100CB000874B1B68874A9342F5D9874B1A68874B45
:100CC0001B68D31A844A1360834B5A68844B1B6891
:100CD000D31A814A5360804B9A68824B1B68D31A9F
:100CE0007D4A93607C4BDA687F4B1B68D31A7A4A43
:100CF000D360794B1A697D4B1B68D31A764A13610E
:100D0000724B1B68002B16D10120FFF775FB784A48
:100D100000210120FFF74AFC6D4B00221A6004E01D
:100D20006B4B1B6801336A4A1360694B1B68714A3D
:100D30009342F5D9A0E07B69B3F57A7F04DB7B6948
:100D400042F20F72934208DD7B69632B40F394807B
:100D50007B69B3F57A7F80F28F800120FFF74CFB2F
:100D60007B69654A82FB03129211DB17D21A134684
:100D70009B0013445B0018467B69604A82FB0312A8
:100D80005211DB17D11A5E4B83FB01239A10CB174C
:100D9000D21A13469B0013445B00CA1A83183B61A6
:100DA0004A4B1B683A699A4239DD484B1B683A69DD
:100DB000D31AFB60454B1B686FF0630202FB03F222
:100DC0007B691A44FB68642101FB03F313447B61D4
:100DD0003E4B1B6839460A22184601F00BFE3B4683
:100DE0001A4600210120FFF7E1FB464A02210120BB
:100DF000FFF7DCFB354B1B683A69D31A334A1360A3
:100E0000334B00221A6004E0314B1B680133304A37
:100E100013602F4B1B682F4A9342F5D92CE02B4BC4
:100E20001A683B69D31A294A13603B696FF0630261
:100E300002FB03F37A6913447B613B460A2219469D
:100E4000386901F0D7FD3B461A4600210120FFF723
:100E5000ADFB2C4A02210120FFF7A8FB1C4B00220E
:100E60001A6004E01A4B1B680133194A1360184BCF
:100E70001B68184A9342F5D9124B1B68002B45D1C9
:100E80000120FFF7B9FA204A00210120FFF78EFB6D
:100E90000F4B00221A6004E00D4B1B6801330C4A13
:100EA00013600B4B1B68134A9342F5D9A8E000BFAF
:100EB000240A0020280A0020E8080020480A002010
:100EC000EC080020C00A0020F00800202C0A0020B6
:100ED000600A00203F4B4C00300A0020F40800203C
:100EE0000009002004090020FC080020F808002068
:100EF000E42D00009F860100D34D62101F85EB5149
:100F000067666666F42D0000002E00007B69312BB9
:100F100076DD0120FFF770FA7B69A54A82FB031298
:100F20001211DB17D31ABB60A24B1B68BA689A4236
:100F300039DDA04B1B68BA68D31AFB609D4B1B6858
:100F40006FF0310202FB03F27B691A44FB68322125
:100F500001FB03F313447B61964B1B6839460A225D
:100F6000184601F047FD3B461A4600210120FFF7D5
:100F70001DFB914A02210120FFF718FB8D4B1B68D6
:100F8000BA68D31A8B4A13608C4B00221A6004E0B3
:100F90008A4B1B680133894A1360884B1B68884A57
:100FA0009342F5D92CE0834B1A68BB68D31A814A67
:100FB0001360BB686FF0310202FB03F37A691344DC
:100FC0007B613B460A221946B86801F013FD3B4697
:100FD0001A4600210120FFF7E9FA774A0221012091
:100FE000FFF7E4FA754B00221A6004E0734B1B68AC
:100FF0000133724A1360714B1B68714A9342F5D9F1
:10100000704B1B68002B16D10120FFF7F5F96E4AD3
:1010100000210120FFF7CAFA684B00221A6004E0A1
:10102000664B1B680133654A1360644B1B68674A53
:101030009342F5D97BE07B69182B78DD0120FFF71F
:10104000DBF97B695A4A82FB0312D210DB17D31AF1
:101050007B605C4B1B687A689A423BDD594B1B688E
:101060007A68D31AFB60574B1B686FF0180202FBBB
:1010700003F27B69D118FA6813469B0013449A0067
:1010800013440B447B614F4B1B6839460A221846B8
:1010900001F0B0FC3B461A4600210120FFF786FA1A
:1010A0004B4A02210120FFF781FA464B1B687A6800
:1010B000D31A444A1360414B00221A6004E03F4BAC
:1010C0001B6801333D4A13603C4B1B683C4A93420A
:1010D000F5D92CE03B4B1A687B68D31A394A136068
:1010E0007B686FF0180202FB03F37A6913447B619B
:1010F0003B460A221946786801F07CFC3B461A46BA
:1011000000210120FFF752FA314A02210120FFF7A6
:101110004DFA2A4B00221A6004E0284B1B68013369
:10112000264A1360254B1B68254A9342F5D90120B6
:10113000FFF762F9274A00210120FFF737FA214B18
:101140001B6839460A22184601F054FC3B461A46F1
:1011500000210220FFF72AFA1F4A02210220FFF78E
:1011600025FA164B00221A6004E0144B1B68013369
:10117000124A1360114B1B68114A9342F5D90120A2
:10118000FFF73AF90B4B1B6839460A22184601F063
:1011900031FC3B461A4600210120FFF707FA0F4AAF
:1011A00002210120FFF702FA044B00221A601CE022
:1011B0001F85EB51C00A0020142E0000600A002099
:1011C0003F4B4C00480A0020242E00009F8601005F
:1011D000382E0000482E0000542E0000642E00001F
:1011E000184B1B680133174A1360164B1B68164ACD
:1011F0009342F5D90120FFF7FFF8144B1B683946DD
:101200000A22184601F0F6FB3B461A46002101204F
:10121000FFF7CCF90E4A02210120FFF7C7F9094B6D
:1012200000221A6004E0074B1B680133054A136073
:10123000044B1B68044A9342F5D900BF1837BD46DA
:1012400080BD00BF600A00203F4B4C002C0A0020EC
:10125000742E0000F0B58DB000AFFFF707F8FFF770
:1012600055F9FFF7CBF90120FFF7C6F8AD4A002189
:101270000120FFF79BF9AC4B1B6803F00103002B27
:1012800032D10120FFF7B8F8A84B00221A6004E021
:10129000A64B1B680133A54A1360A44B1B68A44AE4
:1012A0009342F5D9A34B1B680133A24A1360A14BAB
:1012B0001B6807F120010A22184601F09BFB07F189
:1012C00020031A4600210120FFF770F9974B0022F6
:1012D0001A6004E0954B1B680133944A1360934BEA
:1012E0001B68934A9342F5D98F4B1B6803F00203A6
:1012F000002B32D10120FFF77FF88C4B00221A60BF
:1013000004E08A4B1B680133884A1360874B1B68D3
:10131000874A9342F5D9884B1B680133864A13608C
:10132000854B1B6807F120010A22184601F062FB79
:1013300007F120031A4600210120FFF737F97B4B04
:1013400000221A6004E0794B1B680133774A13606E
:10135000764B1B68764A9342F5D9734B1B6803F0B2
:101360000403002B32D10120FFF746F86F4B002217
:101370001A6004E06D4B1B6801336C4A13606B4BC1
:101380001B686B4A9342F5D96C4B1B6801336B4A5F
:1013900013606A4B1B6807F120010A22184601F00E
:1013A00029FB07F120031A4600210120FFF7FEF870
:1013B0005E4B00221A6004E05C4B1B6801335B4A01
:1013C00013605A4B1B685A4A9342F5D9564B1B6817
:1013D00003F00803002B7FF44EAF544B00221A6039
:1013E00004E0524B1B680133504A13604F4B1B689B
:1013F0004F4A9342F5D94F4B1B68184600F0EAFF5D
:101400004FF000024E4B01F04BF803460C462546C8
:101410001C46494B1B68184600F0DCFF4FF00002E9
:10142000484B01F03DF802460B462046294600F0A5
:1014300085FE03460C4625461C46404B1B68184655
:1014400000F0C8FF02460B462046294600F076FE13
:1014500003460C46184621464FF000023A4B01F075
:101460001FF803460C461846214601F02BFA0246A7
:10147000364B1A60354B1B68354A82FB03129211BA
:10148000DB17D31A3B61314B1B68324A82FB0312D4
:101490005211DB17D11A304B83FB01239A10CB1763
:1014A000D21A13469B0013445B00CA1A7A61274B79
:1014B0001B68294A82FB03129210DB17D11A264BB4
:1014C00083FB01239A10CB17D21A13469B001344B7
:1014D0005B00CA1ABA611D4B19681F4B83FB0123BD
:1014E0009A10CB17D21A13469B0013445B00CA1AFA
:1014F000FA610E4B00221A6004E00C4B1B680133AA
:101500000A4A1360094B1B68094A9342F5D907F14F
:10151000100300211846FFF7B3F9044B00221A60AC
:1015200021E000BF842E0000FC430240600A00203E
:101530009F860100E8080020EC080020F008002049
:101540000000D03F0000E03F00005940240A002086
:10155000D34D62101F85EB51676666669E4B1B6814
:1015600001339D4A13609C4B1B689C4A9342F5D9FA
:1015700000BF0023FB629A4B1B6803F08003002B23
:101580004ED1FB6A002B4BD10120FEF735FF924B69
:1015900000221A6004E0904B1B6801338E4A1360EE
:1015A0008D4B1B688D4A9342F5D98E4B1B680133D6
:1015B0008C4A13608B4B1B6807F120010A221846E6
:1015C00001F018FA07F120031A4600210120FEF766
:1015D000EDFF814B00221A6004E07F4B1B68013352
:1015E0007D4A13607C4B1B687C4A9342F5D97D4B46
:1015F0001B6858B27C4B19687C4B1B681A46FFF776
:1016000053FAF862744B00221A6004E0724B1B68B4
:101610000133714A1360704B1B68704A9342F5D9CD
:101620006F4B1B6803F04003002B4ED1FB6A002B6D
:101630004BD10120FEF7E0FE674B00221A6004E068
:10164000654B1B680133644A1360634B1B68634A34
:101650009342F5D9664B1B680133654A1360644BAE
:101660001B6807F120010A22184601F0C3F907F1AF
:1016700020031A4600210120FEF798FF564B002256
:101680001A6004E0544B1B680133534A1360524BF9
:101690001B68524A9342F5D9554B1B6858B2524BBE
:1016A0005968524B5B681A46FFF7FEF9F8624A4BDD
:1016B00000221A6004E0484B1B680133464A13605D
:1016C000454B1B68454A9342F5D9454B1B6803F0CF
:1016D0002003002B4ED1FB6A002B4BD10120FEF7DB
:1016E0008BFE3D4B00221A6004E03B4B1B6801332C
:1016F000394A1360384B1B68384A9342F5D93D4B41
:101700001B6801333B4A13603A4B1B6807F1200109
:101710000A22184601F06EF907F120031A4600214B
:101720000120FEF743FF2C4B00221A6004E02A4BF5
:101730001B680133284A1360274B1B68274A9342D2
:10174000F5D92C4B1B6858B2274B9968274B9B68DF
:101750001A46FFF7A9F9F8621F4B00221A6004E04D
:101760001D4B1B6801331C4A13601B4B1B681B4A33
:101770009342F5D91A4B1B6803F01003002B60D17C
:10178000FB6A002B5DD10120FEF736FE124B0022D2
:101790001A6004E0104B1B6801330F4A13600E4BB4
:1017A0001B680E4A9342F5D9134B1B680133124A4A
:1017B0001360114B1B6807F120010A22184601F043
:1017C00019F907F120031A4600210120FEF7EEFE69
:1017D000014B00221A6016E0600A00209F8601007B
:1017E000FC630040F40800204C0A0020300A00206E
:1017F0000009002004090020FC080020AA4B1B68F7
:101800000133A94A1360A84B1B68A84A9342F5D933
:10181000A74B1B6858B2A74BD968A74BDB681A4681
:10182000FFF742F9F862A04B00221A6004E09E4BD9
:101830001B6801339C4A13609B4B1B689B4A934275
:10184000F5D99E4B1B6803F01003002B4ED1FB6AA9
:10185000002B4BD10120FEF7CFFD934B00221A60E5
:1018600004E0914B1B6801338F4A13608E4B1B6859
:101870008E4A9342F5D9924B1B680133904A13600C
:101880008F4B1B6807F120010A22184601F0B2F8BD
:1018900007F120031A4600210120FEF787FE824B44
:1018A00000221A6004E0804B1B6801337E4A1360FB
:1018B0007D4B1B687D4A9342F5D9814B1B6858B21A
:1018C0007C4B19697C4B1B691A46FFF7EDF8F862EF
:1018D000754B00221A6004E0734B1B680133724A97
:1018E0001360714B1B68714A9342F5D9734B1B68A7
:1018F00003F00803002B40F05481FB6A002B40F0FA
:1019000050810120FEF778FD674B00221A6004E049
:10191000654B1B680133644A1360634B1B68634A61
:101920009342F5D9674B1B68184600F053FD664B90
:10193000D3E900341A46234600F0B2FD03460C46B4
:101940001D462646614B1B68184600F043FD5E4B62
:10195000D3E902341A46234600F0A2FD03460C46A2
:101960001A4623462846314600F0E8FB03460C465B
:101970001D462646564B1B68184600F02BFD524B61
:10198000D3E904341A46234600F08AFD03460C4688
:101990001A4623462846314600F0D0FB03460C4643
:1019A0001D462646424B1B68184600F013FD464B69
:1019B000D3E906341A46234600F072FD03460C466E
:1019C0001A4623462846314600F0B8FB03460C462B
:1019D0001D4626463A4B1B68184600F0FBFC3A4B66
:1019E000D3E908341A46234600F05AFD03460C4654
:1019F0001A4623462846314600F0A0FB03460C4613
:101A0000184621464FF00002324B00F049FD0346D4
:101A10000C461846214600F055FF02462E4B1A6030
:101A20002D4B1B682D4A82FB03129211DB17D31A30
:101A30003B60294B1B682A4A82FB03125211DB17B9
:101A4000D11A284B83FB01239A10CB17D21A1346C5
:101A50009B0013445B00CA1A7A601F4B1B68214A23
:101A600082FB03129210DB17D11A1E4B83FB01235A
:101A70009A10CB17D21A13469B0013445B00CA1A64
:101A8000BA60154B1968174B83FB01239A10CB17CB
:101A9000D21A13469B0013445B00CA1AFA60024B29
:101AA00000221A6025E000BF600A00209F86010026
:101AB000FC0800204C0A0020300A0020FC430240B1
:101AC000F8080020F4080020980A002000090020EF
:101AD0000409002000005940280A0020D34D62105C
:101AE0001F85EB5167666666914B1B680133904A10
:101AF00013608F4B1B688F4A9342F5D98E4B1A683F
:101B00008E4B1B689A4228DA0123FB62884B002225
:101B10001A6004E0864B1B680133854A1360844BCE
:101B20001B68844A9342F5D9854A00210120FEF7BB
:101B30003DFD844A00210220FEF738FD7C4B002247
:101B40001A6004E07A4B1B680133794A1360784BC2
:101B50001B68784A9342F5D915E03B4601211846A7
:101B6000FEF78EFE724B00221A6004E0704B1B6879
:101B700001336F4A13606E4B1B68734A9342F5D969
:101B80000023BB629EE06A4B00221A6004E0684BAF
:101B90001B680133664A1360654B1B68654A9342B4
:101BA000F5D96A4B1B6803F02003002B7FF4E3ACEC
:101BB0000120FEF721FC5E4B00221A6004E05C4B22
:101BC0001B6801335A4A1360594B1B68594A9342A8
:101BD000F5D95F4B00221A60554B00221A6004E0D1
:101BE000534B1B680133524A1360514B1B68514AD7
:101BF0009342F5D9574B00221A604D4B00221A60D0
:101C000004E04B4B1B680133494A1360484B1B6887
:101C1000484A9342F5D9504B00221A60444B0022A7
:101C20001A6004E0424B1B680133414A1360404B89
:101C30001B68404A9342F5D9484B00221A603C4B3E
:101C400000221A6004E03A4B1B680133384A1360E3
:101C5000374B1B68374A9342F5D9414B00221A6033
:101C6000334B00221A6004E0314B1B680133304AC9
:101C700013602F4B1B682F4A9342F5D90023FB6258
:101C80002B4B00221A6004E0294B1B680133284AC1
:101C90001360274B1B68274A9342F5D9314A00212C
:101CA0000120FEF783FC224B00221A6004E0204B47
:101CB0001B6801331E4A13601D4B1B681D4A93426B
:101CC000F5D958E400F0A2FE0246274B1340002B42
:101CD00003DA013B63F00303013301337B627B6A68
:101CE000022B40F08D80BB6A002B40F089800120E0
:101CF000FEF782FB0E4B00221A6004E00C4B1B68BF
:101D000001330B4A13600A4B1B680A4A9342F5D908
:101D1000164A164B1B6843F008031360134A134B13
:101D20001B6823F004031360014B00221A6024E0B7
:101D3000600A00209F860100240A0020280A002053
:101D4000942E0000A02E00003F4B4C00FC430240AC
:101D5000F40800200009002004090020FC080020ED
:101D6000F80800205C2D000003000080FC430040C8
:101D7000904B1B6801338F4A13608E4B1B688E4A51
:101D80009342F5D90123BB628A4B00221A6004E01A
:101D9000884B1B680133874A1360864B1B68864A51
:101DA0009342F5D9854A00210120FEF7FFFB01206F
:101DB000FEF722FB7F4B00221A6004E07D4B1B687C
:101DC00001337C4A13607B4B1B687B4A9342F5D9F5
:101DD0007B4A00210120FEF7E9FB7A4A002102201C
:101DE000FEF7E4FB734B00221A6004E0714B1B68A2
:101DF0000133704A13606F4B1B686F4A9342F5D9E9
:101E00007B6A012B05D07B6A032B02D07B6A042BF3
:101E100060D1BB6A002B5DD10120FEF7EDFA654B66
:101E200000221A6004E0634B1B680133614A1360AF
:101E3000604B1B68604A9342F5D9634A624B1B684A
:101E400023F008031360604A5F4B1B6843F00403F0
:101E50001360584B00221A6004E0564B1B68013394
:101E6000544A1360534B1B68534A9342F5D90123DC
:101E7000BB62504B00221A6004E04E4B1B680133DA
:101E80004C4A13604B4B1B684B4A9342F5D9FEF703
:101E9000E1FE484B00221A6004E0464B1B68013308
:101EA000444A1360434B1B68434A9342F5D9474A5F
:101EB00000210120FEF77AFB3E4B00221A6004E06D
:101EC0003C4B1B6801333B4A13603A4B1B683A4A50
:101ED0009342F5D93E4B1B6803F02003002B7FF49F
:101EE000F1AE0120FEF788FA374A374B1B6823F022
:101EF00008031360344A344B1B6823F00403136057
:101F00002C4B00221A6004E02A4B1B680133294A3B
:101F10001360284B1B68284A9342F5D92D4B0022A9
:101F20001A60244B00221A6004E0224B1B68013324
:101F3000204A13601F4B1B681F4A9342F5D9264B5A
:101F400000221A601B4B00221A6004E0194B1B6828
:101F50000133184A1360174B1B68174A9342F5D98F
:101F60001E4B00221A60134B00221A6004E0114B32
:101F70001B6801330F4A13600E4B1B680E4A9342D5
:101F8000F5D9174B00221A600A4B00221A6004E0B0
:101F9000084B1B680133074A1360064B1B68064A4F
:101FA0009342F5D90F4B00221A60024B00221A60AF
:101FB0001FE000BF600A00209F860100B42E0000D1
:101FC000C42E0000D02E0000FC430040882D0000ED
:101FD000FC430240F408002000090020040900200E
:101FE000FC080020F8080020274B1B680133264A14
:101FF0001360254B1B68254A9342F5D9244B0022D8
:102000001A60214B00221A6004E01F4B1B68013349
:102010001D4A13601C4B1B681C4A9342F5D91D4B8B
:1020200000221A60184B00221A6004E0164B1B684D
:102030000133154A1360144B1B68144A9342F5D9B7
:10204000154B00221A60104B00221A6004E00E4B60
:102050001B6801330C4A13600B4B1B680B4A9342FD
:10206000F5D90023FB62084B00221A6004E0064BFE
:102070001B680133044A1360034B1B68034A9342F5
:10208000F5D9FFF7F0B800BF600A00209F86010075
:10209000E8080020EC080020F008002080B500AF20
:1020A000FFF7D8F80023184680BD00BF80B582B086
:1020B00000AF134B7B60134B3B6007E03B681A1D7E
:1020C0003A607A68111D796012681A603B680E4A9E
:1020D0009342F3D30E480F494FF000028842B8BF35
:1020E00040F8042BFADB094A084B1B6843F47003E1
:1020F0001360FFF7D3FF00BF0837BD4680BD00BFA8
:102100002C30000000000020E408002088ED00E0F2
:10211000E8080020C40A002080B400AFFEE700BF3A
:1021200080B400AFFEE700BF80B400AFFEE700BFA1
:1021300081F0004102E000BF83F0004330B54FEA78
:1021400041044FEA430594EA050F08BF90EA020FE5
:102150001FBF54EA000C55EA020C7FEA645C7FEA78
:10216000655C00F0E2804FEA5454D4EB5555B8BF9B
:102170006D420CDD2C4480EA020281EA030382EA0C
:10218000000083EA010180EA020281EA0303362D9E
:1021900088BF30BD11F0004F4FEA01314FF4801C71
:1021A0004CEA113102D0404261EB410113F0004F83
:1021B0004FEA03334CEA133302D0524263EB43033A
:1021C00094EA050F00F0A780A4F10104D5F1200ED8
:1021D0000DDB02FA0EFC22FA05F2801841F1000133
:1021E00003FA0EF2801843FA05F359410EE0A5F107
:1021F00020050EF1200E012A03FA0EFC28BF4CF038
:10220000020C43FA05F3C01851EBE37101F00045ED
:1022100007D54FF0000EDCF1000C7EEB00006EEBFA
:102220000101B1F5801F1BD3B1F5001F0CD3490884
:102230005FEA30004FEA3C0C04F101044FEA4452DB
:1022400012F5800F80F09A80BCF1004F08BF5FEA62
:10225000500C50F1000041EB045141EA050130BD42
:102260005FEA4C0C404141EB010111F4801FA4F1E5
:102270000104E9D191F0000F04BF01460020B1FA3A
:1022800081F308BF2033A3F10B03B3F120020CDA72
:102290000C3208DD02F1140CC2F10C0201FA0CF050
:1022A00021FA02F10CE002F11402D8BFC2F1200CB5
:1022B00001FA02F120FA0CFCDCBF41EA0C0190406B
:1022C000E41AA2BF01EB0451294330BD6FEA0404B4
:1022D0001F3C1CDA0C340EDC04F11404C4F120029F
:1022E00020FA04F001FA02F340EA030021FA04F3B1
:1022F00045EA030130BDC4F10C04C4F1200220FA08
:1023000002F001FA04F340EA0300294630BD21FA45
:1023100004F0294630BD94F0000F83F4801306BF0B
:1023200081F480110134013D4EE77FEA645C18BFFF
:102330007FEA655C29D094EA050F08BF90EA020F96
:1023400005D054EA000C04BF1946104630BD91EA8E
:10235000030F1EBF0021002030BD5FEA545C05D191
:102360004000494128BF41F0004130BD14F58004D0
:102370003CBF01F5801130BD01F0004545F0FE4144
:1023800041F470014FF0000030BD7FEA645C1ABF79
:10239000194610467FEA655C1CBF0B46024650EAB0
:1023A000013406BF52EA033591EA030F41F40021DC
:1023B00030BD00BF90F0000F04BF0021704730B562
:1023C0004FF4806404F132044FF000054FF0000137
:1023D00050E700BF90F0000F04BF0021704730B5F8
:1023E0004FF4806404F1320410F0004548BF4042CD
:1023F0004FF000013EE700BF42004FEAE2014FEA22
:1024000031014FEA02701FBF12F07F4393F07F4FFC
:1024100081F06051704792F0000F14BF93F07F4F2E
:10242000704730B54FF4607401F0004521F0004171
:1024300020E700BF50EA010208BF704730B54FF0F7
:1024400000050AE050EA010208BF704730B511F0FC
:10245000004502D5404261EB41014FF4806404F134
:1024600032045FEA915C3FF4DCAE4FF003025FEAB6
:10247000DC0C18BF03325FEADC0C18BF033202EB3E
:10248000DC02C2F1200300FA03FC20FA02F001FA98
:1024900003FE40EA0E0021FA02F11444C1E600BF37
:1024A00070B54FF0FF0C4CF4E06C1CEA11541DBFEA
:1024B0001CEA135594EA0C0F95EA0C0F00F0DEF8B5
:1024C0002C4481EA030621EA4C5123EA4C5350EA9A
:1024D000013518BF52EA033541F4801143F48013EB
:1024E00038D0A0FB02CE4FF00005E1FB02E506F07C
:1024F0000042E0FB03E54FF00006E1FB03569CF0D1
:10250000000F18BF4EF0010EA4F1FF04B6F5007FD6
:1025100064F5407404D25FEA4E0E6D4146EB060648
:1025200042EAC62141EA55514FEAC52040EA5E50D1
:102530004FEACE2EB4F1FD0C88BFBCF5E06F1ED87B
:10254000BEF1004F08BF5FEA500E50F1000041EBB2
:10255000045170BD06F0004646EA010140EA02005F
:1025600081EA0301B4EB5C04C2BFD4EB0C0541EA81
:10257000045170BD41F480114FF0000E013C00F396
:10258000AB8014F1360FDEBF002001F0004170BDBA
:10259000C4F10004203C35DA0C341BDC04F11404D3
:1025A000C4F1200500FA05F320FA04F001FA05F25F
:1025B00040EA020001F0004221F0004110EBD3702C
:1025C00021FA04F642EB06015EEA430E08BF20EA58
:1025D000D37070BDC4F10C04C4F1200500FA04F3FB
:1025E00020FA05F001FA04F240EA020001F000418D
:1025F00010EBD37041F100015EEA430E08BF20EA00
:10260000D37070BDC4F1200500FA05F24EEA020E47
:1026100020FA04F301FA05F243EA020321FA04F076
:1026200001F0004121FA04F220EA020000EBD3702D
:102630005EEA430E08BF20EAD37070BD94F0000F2D
:102640000FD101F00046400041EB010111F4801F61
:1026500008BF013CF7D041EA060195F0000F18BF12
:10266000704703F00046520043EB030313F4801F4E
:1026700008BF013DF7D043EA0603704794EA0C0F08
:102680000CEA135518BF95EA0C0F0CD050EA41061E
:1026900018BF52EA4306D1D181EA030101F000419B
:1026A0004FF0000070BD50EA410606BF10461946C3
:1026B00052EA430619D094EA0C0F02D150EA0136CF
:1026C00013D195EA0C0F05D152EA03361CBF104610
:1026D00019460AD181EA030101F0004141F0FE41AF
:1026E00041F470014FF0000070BD41F0FE4141F433
:1026F000780170BD70B54FF0FF0C4CF4E06C1CEA33
:1027000011541DBF1CEA135594EA0C0F95EA0C0FE7
:1027100000F0A7F8A4EB050481EA030E52EA0335A2
:102720004FEA013100F088804FEA03334FF08055C3
:1027300045EA131343EA12634FEA022245EA1115F0
:1027400045EA10654FEA00260EF000419D4208BFA1
:10275000964244F1FD0404F5407402D25B084FEA4E
:102760003202B61A65EB03055B084FEA32024FF4FA
:1027700080104FF4002CB6EB020E75EB030E22BF57
:10278000B61A754640EA0C005B084FEA3202B6EB17
:10279000020E75EB030E22BFB61A754640EA5C00C6
:1027A0005B084FEA3202B6EB020E75EB030E22BF56
:1027B000B61A754640EA9C005B084FEA3202B6EB57
:1027C000020E75EB030E22BFB61A754640EADC0016
:1027D00055EA060E18D04FEA051545EA16754FEA78
:1027E00006164FEAC30343EA52734FEAC2025FEA96
:1027F0001C1CC0D111F4801F0BD141EA00014FF025
:1028000000004FF0004CB6E711F4801F04BF0143F5
:102810000020B4F1FD0C88BFBCF5E06F3FF6AFAE11
:10282000B5EB030C04BFB6EB020C5FEA500C50F1A1
:10283000000041EB045170BD0EF0004E4EEA113124
:1028400014EB5C04C2BFD4EB0C0541EA045170BD2B
:1028500041F480114FF0000E013C90E645EA060E6F
:102860008DE60CEA135594EA0C0F08BF95EA0C0F9D
:102870003FF43BAF94EA0C0F0AD150EA01347FF4E5
:1028800034AF95EA0C0F7FF425AF104619462CE7BC
:1028900095EA0C0F06D152EA03353FF4FDAE10461F
:1028A000194622E750EA410618BF52EA43067FF470
:1028B000C5AE50EA41047FF40DAF52EA43057FF400
:1028C000EBAE12E74FEA410212F5001215D211D514
:1028D0006FF47873B3EB625212D94FEAC12343F01D
:1028E000004343EA505311F0004F23FA02F018BF9F
:1028F000404270474FF00000704750EA013005D168
:1029000011F0004008BF6FF0004070474FF000002A
:10291000704700BF4FEA4102B2F1E04324BFB3F574
:10292000001CDCF1FE5C0DD901F0004C4FEAC00246
:102930004CEA5070B2F1004F40EB830008BF20F02A
:102940000100704711F0804F21D113F13872BCBFE4
:1029500001F00040704741F480114FEA5252C2F139
:102960001802C2F1200C10FA0CF320FA02F018BF82
:1029700040F001004FEAC1234FEAD32303FA0CFCD5
:1029800040EA0C0023FA02F34FEA4303CCE77FEA64
:10299000625307D150EA01331EBF4FF0FE4040F4AE
:1029A0004000704701F0004040F0FE4040F400005D
:1029B000704700BF0A22002100F078B90A230022E4
:1029C00000F0E0B8931E222B10D80A2A10B506D0CA
:1029D00000230C46194400F075F9204610BD00286C
:1029E000F6DA2D230B7040420123F2E70020087035
:1029F000704700BFFFF7E6BF034B1B680022C3F818
:102A0000A800C3F8AC207047B004002010B40C4BF1
:102A10000C4C19680C4AD1F8A830D1F8AC0004FB72
:102A200003F402FB0040A3FB02230344013243F101
:102A30000003C1E92A2323F000405DF8044B7047EE
:102A4000B00400202DF451582D7F954C80EA0102EE
:102A5000844612F0030F4FD111F0030F32D14DF81D
:102A6000044D11F0040F51F8043B0BD0A3F10132D7
:102A70009A4312F0803F04BF4CF8043B51F8043BEA
:102A800016D100BF51F8044BA3F101329A4312F062
:102A9000803FA4F101320BD14CF8043BA24312F069
:102AA000803F04BF51F8043B4CF8044BEAD0234666
:102AB0000CF8013B13F0FF0F4FEA3323F8D15DF818
:102AC000044B704711F0010F06D011F8012B0CF8E0
:102AD000012B002A08BF704711F0020FBFD031F858
:102AE000022B12F0FF0F16BF2CF8022B8CF80020DF
:102AF00012F47F4FB3D1704711F8012B0CF8012B62
:102B0000002AF9D1704700BF024B1A6801235C32DA
:102B100000F002B8B0040020F0B420B307460D4620
:102B200017F8016B01E0A64216D015F8014B002CF6
:102B3000F9D1EEB13E460C4616F8015B00E073B1E8
:102B400014F8013B9D42FAD15DB100233B70166041
:102B500006463046F0BC704763B13846DEE737467C
:102B6000E8E72E46F3E710680028D7D10646F0E7DD
:102B70001660EEE7176006460370EAE70123FFF7E9
:102B8000CBBF00BF2DE9F04F474C83460E46D4F82B
:102B900000E000E02646344614F8015B0EEB050029
:102BA000407800F0080000F0FF080028F2D12D2D39
:102BB0005CD02B2D04BF7578B41C002B3ED0102B9D
:102BC00060D09A46B8F1000F0CBF6FF000404FF094
:102BD00000400027B0FBFAF9BC460AFB19000CE0E4
:102BE000303DAB4219DD7E1C05D0CC4523D820D02A
:102BF0000AFB0C5C012714F8015B0EEB05067678E6
:102C000016F0040FECD116F0030606D0012E14BF07
:102C100057263726AD1BAB42E5DC7B1C16D0B8F13E
:102C2000000F10D16046002A39D0DFB91160BDE82D
:102C3000F08F8542DCDD4FF0FF37DCE7302D1AD016
:102C40000A239A46BEE7CCF1000CEBE7B8F1000F7F
:102C50004FF022030CBF6FF000404FF00040CBF864
:102C60000030F2B1611E1160BDE8F08FB41C7578C0
:102C70004FF00108A1E7237803F0DF03582B08D0B9
:102C800008239EE7302D9CD1207800F0DF005828E3
:102C900097D14FF0100A65785346023492E7BDE8A9
:102CA000F08FBDE8F08F00BFE008002010B4044CA6
:102CB00013460A46014620685DF8044BFFF762BFE1
:102CC000B0040020F0B5DFF878E0164604460F4661
:102CD000BEE80F008BB06D460FC5BEE80F000FC5F4
:102CE0009EE80300B31E45F8040B222B297022D85E
:102CF0007D1E2846002200E01A46B4FBF6F10AAB1E
:102D000006FB114423440C4613F8283C00F8013F0D
:102D1000531C0029F0D1F954BB184AB1197815F8A1
:102D2000010F29700134111B8C4203F80109F5DBF6
:102D300038460BB0F0BD002038700BB0F0BD00BFBE
:102D4000E82E0000FFF7BEBF2C00000020000000AE
:102D5000544C20676972696C646900005572756E25
:102D600020736563696E697A2E0000005475746182
:102D7000723A2000544C0000206164657420737521
:102D800020796F6B00000000526573657420426506
:102D90006B6C656E69796F7200000000206164657C
:102DA000742063617920796F6B0000002061646595
:102DB00074206B6168766520796F6B0020616465B3
:102DC000742063696B6F6C61746120796F6B0000B4
:102DD0002061646574206269736B75766920796F10
:102DE0006B0000003120544C206B616C6D61646994
:102DF0002E00000061646574203120544C000000F6
:102E00003530204B75727573206B616C6D61646930
:102E10000000000061646574203530204B757275C8
:102E2000730000003235204B75727573206B616C36
:102E30006D6164692E000000616465742032352084
:102E40004B757275730000004F746F6D617474611F
:102E50000000000074616E65203235204B7572757C
:102E60007300000074616E65203530204B757275FB
:102E70007300000074616E65203120544C2076612F
:102E8000720000005061726120676972696E697A30
:102E90000000000054757461722061737469000051
:102EA00052657365742062656B6C656E69796F72CB
:102EB0002E000000506172612053696B6973746960
:102EC00021000000506172612069616465736900CE
:102ED00052657365742042656B6C656E69796F72BB
:102EE0002E000000430000003031323334353637D5
:102EF00038396162636465666768696A6B6C6D6EB8
:102F00006F707172737475767778797A000000004B
:102F100000202020202020202020282828282820A9
:102F200020202020202020202020202020202020A1
:102F30002088101010101010101010101010101009
:102F400010040404040404040404041010101010F9
:102F500010104141414141410101010101010101C3
:102F60000101010101010101010101011010101015
:102F70001010424242424242020202020202020295
:102F800002020202020202020202020210101010E9
:102F90002000000000000000000000000000000011
:102FA0000000000000000000000000000000000021
:102FB0000000000000000000000000000000000011
:102FC0000000000000000000000000000000000001
:102FD00000000000000000000000000000000000F1
:102FE00000000000000000000000000000000000E1
:102FF00000000000000000000000000000000000D1
:1030000000000000000000000000000000000000C0
:1030100000000000F8B500BFF8BC08BC9E46704731
:0C302000F8B500BFF8BC08BC9E46704725
:10302C0032302C32302C3130000000000000000017
:10303C000000000000000000000000000000000084
:10304C000000000000000000000000000000000074
:10305C000000000000000000000000000000000064
:10306C000000000000000000000000000000000054
:10307C000000000000000000000000000000000044
:10308C000000000000000000000000000000000034
:10309C000000000000000000000000000000000024
:1030AC000000000000000000000000000000000014
:1030BC000000000000000000000000000000000004
:1030CC0000000000000000000000000000000000F4
:1030DC0000000000000000000000000000000000E4
:1030EC000000000000000000312C73752C33302CD4
:1030FC003530204B75727573000000000000000025
:10310C0000000000000000000000000000000000B3
:10311C0000000000000000000000000000000000A3
:10312C000000000000000000000000000000000093
:10313C000000000000000000000000000000000083
:10314C000000000000000000000000000000000073
:10315C000000000000000000000000000000000063
:10316C000000000000000000000000000000000053
:10317C000000000000000000000000000000000043
:10318C000000000000000000000000000000000033
:10319C000000000000000000000000000000000023
:1031AC000000000000000000000000000000000013
:1031BC00322C6361792C32302C3120544C000000BD
:1031CC0000000000000000000000000000000000F3
:1031DC0000000000000000000000000000000000E3
:1031EC0000000000000000000000000000000000D3
:1031FC0000000000000000000000000000000000C3
:10320C0000000000000000000000000000000000B2
:10321C0000000000000000000000000000000000A2
:10322C000000000000000000000000000000000092
:10323C000000000000000000000000000000000082
:10324C000000000000000000000000000000000072
:10325C000000000000000000000000000000000062
:10326C000000000000000000000000000000000052
:10327C000000000000000000332C6B616876652CA8
:10328C0031352C312E3520544C000000000000004C
:10329C000000000000000000000000000000000022
:1032AC000000000000000000000000000000000012
:1032BC000000000000000000000000000000000002
:1032CC0000000000000000000000000000000000F2
:1032DC0000000000000000000000000000000000E2
:1032EC0000000000000000000000000000000000D2
:1032FC0000000000000000000000000000000000C2
:10330C0000000000000000000000000000000000B1
:10331C0000000000000000000000000000000000A1
:10332C000000000000000000000000000000000091
:10333C000000000000000000000000000000000081
:10334C00342C63696B6F6C6174612C35302C312EAD
:10335C00373520544C000000000000000000000035
:10336C000000000000000000000000000000000051
:10337C000000000000000000000000000000000041
:10338C000000000000000000000000000000000031
:10339C000000000000000000000000000000000021
:1033AC000000000000000000000000000000000011
:1033BC000000000000000000000000000000000001
:1033CC0000000000000000000000000000000000F1
:1033DC0000000000000000000000000000000000E1
:1033EC0000000000000000000000000000000000D1
:1033FC0000000000000000000000000000000000C1
:10340C000000000000000000352C6269736B7576BB
:10341C00692C3130302C3220544C0000000000005C
:10342C000000000000000000000000000000000090
:10343C000000000000000000000000000000000080
:10344C000000000000000000000000000000000070
:10345C000000000000000000000000000000000060
:10346C000000000000000000000000000000000050
:10347C000000000000000000000000000000000040
:10348C000000000000000000000000000000000030
:10349C000000000000000000000000000000000020
:1034AC000000000000000000000000000000000010
:1034BC000000000000000000000000000000000000
:1034CC0000000000000000000000000000000000F0
:1034DC00B80400200000000000000000A407002039
:1034EC000C08002074080020000000000000000000
:1034FC0000000000000000000000000000000000C0
:10350C00000000000000000000000000E42E00009D
:10351C00000000000000000000000000000000009F
:10352C00000000000000000000000000000000008F
:10353C00000000000000000000000000000000007F
:10354C00000000000000000000000000000000006F
:10355C00000000000000000000000000000000005F
:10356C00000000000000000000000000000000004F
:10357C00000000000000000000000000000000003F
:10358C0001000000000000000E33CDAB34126DE6DC
:10359C00ECDE05000B000000000000000000000045
:1035AC00000000000000000000000000000000000F
:1035BC0000000000000000000000000000000000FF
:1035CC0000000000000000000000000000000000EF
:1035DC0000000000000000000000000000000000DF
:04390C00102F000078
:00000001FF
